:100000000C9434000C943E000C943E000C943E0082
:100010000C943E000C943E000C943E000C943E0068
:100020000C943E000C943E000C943E000C943E0058
:100030000C943E000C943E000C943E000C943E0048
:100040000C943E000C943E000C943E000C943E0038
:100050000C943E000C943E000C943E000C943E0028
:100060000C943E000C943E0011241FBECFEFD8E04C
:10007000DEBFCDBF0E945C000C949D000C9400007C
:100080008BB184608BB925E32A95F1F700008BB121
:100090008B7F8BB94B9BFECF80E090E005C0019633
:1000A00025E02A95F1F700004B99F9CF6AE370E05B
:1000B0000E947500CB0108958AB184608AB98AB123
:1000C000877F8AB98AB181608AB98BB18E7F8BB9FB
:1000D0000E9440000197C29720F48BB181608BB9D8
:1000E000F7CF8BB18E7F8BB9F3CF97FB072E16F42A
:1000F000009407D077FD09D00E94890007FC05D045
:100100003EF4909581959F4F0895709561957F4F2E
:100110000895AA1BBB1B51E107C0AA1FBB1FA6174E
:10012000B70710F0A61BB70B881F991F5A95A9F7A0
:0E01300080959095BC01CD010895F894FFCF05
:00000001FF
