S02B00004D6963726F70726F636573736F72732041737369676E6D656E7420322050726F626C656D20332E7317
S11300000C9434000C943E000C943E000C943E007E
S11300100C943E000C943E000C943E000C943E0064
S11300200C943E000C943E000C943E000C943E0054
S11300300C943E000C943E000C943E000C943E0044
S11300400C943E000C943E000C943E000C943E0034
S11300500C943E000C943E000C943E000C943E0024
S11300600C943E000C943E0011241FBECFEFD8E048
S1130070DEBFCDBF0E9440000C9456000C940000DB
S113008087B18F7E87B98AB180668AB9349B07C0ED
S11300908BB180628BB98BB18F7B8BB9F7CF8BB16E
S11300A080648BB98BB18F7D8BB9F0CFF894FFCF7F
S9030000FC
