:100000000C9434000C943E000C943E000C943E0082
:100010000C943E000C943E000C943E000C943E0068
:100020000C943E000C943E000C943E000C943E0058
:100030000C943E000C943E000C943E000C943E0048
:100040000C943E000C943E000C943E000C943E0038
:100050000C943E000C943E000C943E000C943E0028
:100060000C943E000C943E0011241FBECFEFD8E04C
:10007000DEBFCDBF0E9496000C94FE000C940000E1
:1000800087B1816087B987B1826087B987B18460A1
:1000900087B9089523E824BD92E095BD8AB18064B4
:1000A0008AB917BC8AB180628AB918BC2093B000A3
:1000B0009093B10084B1886084B91092B3008AB182
:1000C00088608AB91092B40008958AB184608AB9B0
:1000D0008AB18F7E8AB908958AB180688AB984B15D
:1000E0008E7F84B908958AB181608AB98AB18D7F83
:1000F0008AB908958BB181608BB925E32A95F1F710
:10010000000088B18E7F88B9319BFECF80E090E0FF
:1001100005C0019625E02A95F1F700003199F9CF45
:100120006AE370E00E94D600CB0108950E9440006F
:100130000E9465000E946C000E9473000E944A00A9
:1001400080E887BD88BD8093B3008093B4000E948F
:100150007A000197059780F48BB1877F8BB98BB1BB
:100160008F7D8BB98BB18F7B8BB985B1877F85B93B
:1001700088B1846088B915C08BB188608BB98BB1A8
:1001800080628BB98BB180648BB985B1886085B989
:1001900088B18E7F88B988B18D7F88B988B18B7F0F
:1001A00088B985E38A95F1F70000D1CF97FB072E38
:1001B00016F4009407D077FD09D00E94EA0007FCEE
:1001C00005D03EF4909581959F4F08957095619567
:1001D0007F4F0895AA1BBB1B51E107C0AA1FBB1F7D
:1001E000A617B70710F0A61BB70B881F991F5A95C3
:1001F000A9F780959095BC01CD010895F894FFCFA3
:00000001FF
