:100000000C9434000C9449000C9449000C94490061
:100010000C9449000C9449000C9449000C9449003C
:100020000C9449000C9449000C9449000C9449002C
:100030000C9449000C9449000C9449000C9449001C
:100040000C9449000C9449000C9449000C9449000C
:100050000C9449000C9449000C9449000C944900FC
:100060000C9449000C94490011241FBECFEFD8E036
:10007000DEBFCDBF11E0A0E0B1E0E6EFF0E002C0EE
:1000800005900D92AA30B107D9F70E944B000C944D
:1000900079000C940000CF93DF93CDB7DEB729979A
:1000A0000FB6F894DEBF0FBECDBF8FEF8AB989E0DF
:1000B000E0E0F1E0DE01119601900D928A95E1F702
:1000C00080E00BC024EA30E0082E02C03595279569
:1000D0000A94E2F720FD04C08F5F883098F388E02F
:1000E000E1E0F0E0EC0FFD1FE80FF11D80818BB91E
:0600F000FFCFF894FFCFE2
:0A00F600C0F9A4B0999282F87F00CF
:00000001FF
