:100000000C9434000C943E000C943E000C943E0082
:100010000C943E000C943E000C943E000C943E0068
:100020000C943E000C943E000C943E000C943E0058
:100030000C943E000C943E000C943E000C943E0048
:100040000C943E000C943E000C943E000C943E0038
:100050000C943E000C943E000C943E000C943E0028
:100060000C943E000C943E0011241FBECFEFD8E04C
:10007000DEBFCDBF0E9494000C9440010C940000A0
:100080008BB184608BB925E32A95F1F700008BB121
:100090008B7F8BB94F9BFECF80E090E005C001962F
:1000A00025E02A95F1F700004F99F9CF6AE370E057
:1000B0000E941801CB01089585B1826085B925E3BE
:1000C0002A95F1F7000085B18D7F85B9359BFECF6C
:1000D00080E090E005C0019625E02A95F1F7000048
:1000E0003599F9CF6AE370E00E941801CB010895B9
:1000F0008BB180618BB925E32A95F1F700008BB1B4
:100100008F7E8BB9309BFECF80E090E005C00196DA
:1001100025E02A95F1F700003099F9CF6AE370E005
:100120000E941801CB01089587B1846087B984B11A
:10013000816084B987B1826087B98AB180618AB9E8
:1001400087B18E7F87B98AB184608AB98AB18F7787
:100150008AB984B1826084B987B18F7D87B984B14F
:10016000886084B98AB188608AB98AB180648AB9A2
:100170008AB180628AB90E9478008C010E94400096
:10018000EC010E945C00015011090530110580F45A
:100190002BB1277F2BB92BB12F7B2BB92BB12F7D07
:1001A0002BB925B1277F25B928B1246028B90FC004
:1001B0002BB128602BB92BB120642BB92BB1206255
:1001C0002BB925B1286025B928B12B7F28B92197F3
:1001D000259720F425B1216025B90FC02BB12860E7
:1001E0002BB92BB120642BB92BB120622BB925B1CF
:1001F000286025B925B12E7F25B90197059720F4F0
:1002000088B1826088B90FC08BB188608BB98BB11F
:1002100080648BB98BB180628BB985B1886085B9F8
:1002200088B18D7F88B985E38A95F1F70000A3CF67
:1002300097FB072E16F4009407D077FD09D00E9493
:100240002C0107FC05D03EF4909581959F4F0895B1
:10025000709561957F4F0895AA1BBB1B51E107C0A4
:10026000AA1FBB1FA617B70710F0A61BB70B881F46
:10027000991F5A95A9F780959095BC01CD010895D5
:04028000F894FFCF20
:00000001FF
