:100000000C9434000C9476000C9485000C943E0003
:100010000C943E000C943E000C943E000C943E0068
:100020000C943E000C943E000C943E000C943E0058
:100030000C943E000C9460000C943E000C943E0026
:100040000C943E000C943E000C943E000C943E0038
:100050000C943E000C943E000C943E000C943E0028
:100060000C943E000C943E0011241FBECFEFD8E04C
:10007000DEBFCDBF0E9440000C9494000C940000A1
:1000800014B88FEF87B98AB180698AB98AB1877A43
:100090008AB91092800081E08093810010928500DF
:1000A0001092840093E09DBB80936F008EE080935C
:1000B000690078948BB18F7E8BB983B188B9FDCFFD
:1000C0001F920F920FB60F9211248F939F9310924D
:1000D0008500109284009BB182E089278BB99F91A3
:1000E0008F910F900FBE0F901F9018951F920F9237
:1000F0000FB60F9211248F938BB180618BB98F91C2
:100100000F900FBE0F901F9018951F920F920FB671
:100110000F9211248F938BB18F7E8BB98F910F909B
:0C0120000FBE0F901F901895F894FFCFB1
:00000001FF
