S01F00004D6963726F70726F636573736F727320313034323032342E737265633B
S11300000C9434000C943E000C943E000C943E007E
S11300100C943E000C943E000C943E000C943E0064
S11300200C943E000C943E000C943E000C943E0054
S11300300C943E000C943E000C943E000C943E0044
S11300400C943E000C943E000C943E000C943E0034
S11300500C943E000C943E000C943E000C943E0024
S11300600C943E000C943E0011241FBECFEFD8E048
S1130070DEBFCDBF0E9440000C9461000C940000D0
S11300808AB180618AB984B1886084B991E192317E
S113009038F08BB180618BB985B1877F85B906C093
S11300A085B1886085B98BB18F7E8BB92FEF3FE422
S11300B083EC215030408040E1F700C000009F5F96
S10900C0E6CFF894FFCF27
S9030000FC
