:100000000C9434000C943E000C943E000C943E0082
:100010000C943E000C943E000C943E000C943E0068
:100020000C943E000C943E000C943E000C943E0058
:100030000C943E000C943E000C943E000C943E0048
:100040000C943E000C943E000C943E000C943E0038
:100050000C943E000C943E000C943E000C943E0028
:100060000C943E000C943E0011241FBECFEFD8E04C
:10007000DEBFCDBF0E946D000C94A6000C94000062
:100080008AB184608AB984B1826084B984B18160A4
:1000900084B908958AB181608AB98AB18D7F8AB99D
:1000A00008958BB181608BB925E32A95F1F70000A3
:1000B0008BB18E7F8BB9499BFECF80E090E005C06D
:1000C000019625E02A95F1F700004999F9CF6AE3F6
:1000D00070E00E947E00CB0108950E9440000E94C3
:1000E0004A000E94510001970F9720F48BB1846061
:1000F0008BB9F7CF8BB18B7F8BB9F3CF97FB072EE3
:1001000016F4009407D077FD09D00E94920007FCF6
:1001100005D03EF4909581959F4F08957095619517
:100120007F4F0895AA1BBB1B51E107C0AA1FBB1F2D
:10013000A617B70710F0A61BB70B881F991F5A9573
:10014000A9F780959095BC01CD010895F894FFCF53
:00000001FF
