S02B00004D6963726F70726F636573736F72735F50726F6772616D6D696E675F41737369676E6D656E74342ECB
S11300000C9434000C946E000C947D000C943E000F
S11300100C943E000C943E000C943E000C943E0064
S11300200C943E000C943E000C943E000C943E0054
S11300300C943E000C943E000C945C000C943E0026
S11300400C943E000C943E000C943E000C943E0034
S11300500C943E000C943E000C943E000C943E0024
S11300600C943E000C943E0011241FBECFEFD8E048
S1130070DEBFCDBF0E9440000C948C000C940000A5
S113008014B88FEF87B98AB182618AB98AB1837F44
S11300908AB982E084BD85BD97EC97BD93E09DBB92
S11300A080936E008EE08093690078948BB18F7E8C
S11300B08BB983B188B9FDCF1F920F920FB60F92FF
S11300C011248F939F939BB182E089278BB99F91D1
S11300D08F910F900FBE0F901F9018951F920F9243
S11300E00FB60F9211248F938BB180618BB98F91CE
S11300F00F900FBE0F901F9018951F920F920FB67E
S11301000F9211248F938BB18F7E8BB98F910F90A7
S10F01100FBE0F901F901895F894FFCFBD
S9030000FC
