:100000000C9434000C943E000C943E000C943E0082
:100010000C943E000C943E000C943E000C943E0068
:100020000C943E000C943E000C943E000C943E0058
:100030000C943E000C943E000C943E000C943E0048
:100040000C943E000C943E000C943E000C943E0038
:100050000C943E000C943E000C943E000C943E0028
:100060000C943E000C943E0011241FBECFEFD8E04C
:10007000DEBFCDBF0E9440000C945A000C940000DB
:1000800084B1886084B985B1877F85B982E0809327
:10009000B00081E08093B1001092B2008FE98093AC
:1000A000B300B99BFECF82E087BB95B188E089277A
:0800B00085B9F2CFF894FFCFEF
:00000001FF
