:100000000C9434000C943E000C943E000C943E0082
:100010000C943E000C943E000C943E000C94550051
:100020000C943E000C943E000C943E000C943E0058
:100030000C943E000C943E000C943E000C943E0048
:100040000C943E000C943E000C943E000C943E0038
:100050000C943E000C943E000C943E000C943E0028
:100060000C943E000C943E0011241FBECFEFD8E04C
:10007000DEBFCDBF0E9440000C9467000C940000CE
:1000800084B1886084B985B1877F85B982E0809327
:10009000B00091E09093B1001092B2009FE990936C
:1000A000B300809370007894FFCF1F920F920FB629
:1000B0000F9211248F939F9395B188E0892785B97A
:1000C0009F918F910F900FBE0F901F901895F894ED
:0200D000FFCF60
:00000001FF
