:100000000C9434000C943E000C943E000C943E0082
:100010000C943E000C943E000C943E000C943E0068
:100020000C943E000C943E000C943E000C943E0058
:100030000C943E000C943E000C943E000C943E0048
:100040000C943E000C943E000C943E000C943E0038
:100050000C943E000C9450000C943E000C943E0016
:100060000C943E000C943E0011241FBECFEFD8E04C
:10007000DEBFCDBF0E9440000C946F000C940000C6
:100080008FEF8AB984B98EE880937A0082E48093F6
:100090007C007894EAE7F0E0808186608083FACF84
:1000A0001F920F920FB60F9211242F938F939F934D
:1000B000809178008BB98091790085B92FEF81EE1E
:1000C00094E0215080409040E1F700C000009F91F3
:1000D0008F912F910F900FBE0F901F901895F8944D
:0200E000FFCF50
:00000001FF
